:060000000C94B5000C9405
:1000060000000C9400000C9400000C9400000C946A
:1000160000000C9400000C9400000C9400000C945A
:1000260000000C9400000C9400000C9400000C944A
:1000360000000C9400000C9400000C9400000C943A
:1000460000000C9400000C9400000C9400000000CA
:100056003A442056494354494D206F6E205354412B
:100066004745203A4400232056494354494D204CE5
:100076004946542023005A2046494E495348205A9F
:100086000053414C414D205341425A0020564943AA
:1000960054494D2000202052454420524F4F4D20B8
:1000A600200020393020726173743D2534642000AD
:1000B60020393020636861703D2534642000256452
:1000C600256425642564202564256425642564004B
:1000D60056696374696D3D256420004C55204C4477
:1000E6002052552052442044205500256420256482
:1000F60020256420256420256420256400202533DE
:10010600642025336420253364200025312E316692
:100116002025312E31662025312E31662025312EBF
:1001260031662025312E31662025312E3166202577
:10013600312E31662025312E316600002D4E414E7E
:10014600000080C001002D4E414E00494E46000081
:100156000200040054000200B00148010100B7018A
:100166004A010000F894EE27ECBBF1E0FBBFEBBFC1
:10017600E5BFF8E1F1BDE1BD8DE0A2E0BB27ED935F
:100186008A95E9F780E094E0A0E6ED930197E9F718
:10019600E6E5F1E085919591009761F0A591B5911D
:1001A60005901590BF01F00105900D920197E1F7BA
:1001B600FB01F0CFEFE5EDBFE4E0EEBFC0E6D1E036
:1001C6000C94D607E881E7B98BE18A95F1F7369A60
:1001D600349BFECF349AE4B1F5B121960895C598C3
:1001E600C498C098C1980E949B0DC69AC7989C99BE
:1001F600FECFC698C7989098919A0E94A10D9098A4
:1002060091980895C39A0E94A70D03C0C39A0E94AD
:10021600AC0DE881F9810E94B10D229608950E94E5
:10022600A70D0E94B50DAAD266247724E2E1F0E07C
:10023600E615F70504F1C598C498C09AC198EEE58D
:10024600F1E00E94B10D0E94BD0DE9E1F0E00E94CF
:10025600B10DE9B3E03059F00E94BD0D0E94C20D08
:100266000E94A70DE0E9F1E00E94B10D04C0F30180
:1002760031963F01DBCF29C00E94AC0D0E94C50D0F
:1002860088249924E2E1F0E0E815F905F4F0C59A2E
:10029600C498C098C198EEE5F1E00E94B10D0E94A5
:1002A600BD0DE9E1F0E00E94B10DE9B3E03049F09F
:1002B6000E94BD0D0E94C20D0E94AC0D0E94CF0D82
:1002C60004C0F40131964F01DDCF58D208958D9ABE
:1002D600959A85E38A95F1F795988D98859BFECF3B
:1002E6000E94D20D8599FECF0E94D70DE093620140
:1002F600F0936301A79AAF9A85E38A95F1F7AF98D1
:10030600A7989F9BFECF0E94D20D9F99FECF0E9479
:10031600D70DE0936401F0936501E9E1F0E04CC28A
:100326000E94DF0D849BFECF0E94D20D8499FECFE2
:100336000E94D70D5F018B9A939A85E38A95F1F710
:1003460093988B98839BFECF0E94D20D8399FECF04
:100356000E94D70D6F018A9A929A85E38A95F1F7E2
:1003660092988A98829BFECF0E94D20D8299FECFE8
:100376000E94D70DE0936001F0936101E9E1F0E09E
:100386001BC20E94DF0D849BFECF0E94D20D849972
:10039600FECF0E94D70D5F01C39AE9E0F0E0AE16EA
:1003A600BF066CF40E94E70D0E94C20DB9DF0E94E1
:1003B600EE0D0CF034DF0E94EE0D0CF45DDF0895B7
:1003C600FF921A930A93FF2400E010E09B9B02C061
:1003D6009A9905C0999B02C0989901C038C09B9B09
:1003E60006C0999B04C09A9B02C0989901C005C09B
:1003F600C098C19AC598C49A21C0A0E09B99A1E073
:10040600A03019F00E94F50D21F4999B02C098992D
:1004160001C003C00E94FA0D0FC0A0E09999A1E0A7
:10042600A03019F00E94FF0D21F49B9B02C09A99FF
:1004360001C004C00E94040E6894F0F8F0FE02C0E9
:100446000E94090E093BEBE01E0708F4BFCF2DC042
:10045600FF921A930A93FF2400E010E09A9902C0D3
:10046600989B23C09A9B02C0989901C003C00E9422
:100476000E0E13C00E94F50D11F4989901C003C029
:100486000E94040E08C09A9B03C00E94FF0D09F04B
:1004960004C00E94FA0D6894F0F8F0FE02C00E94B3
:1004A600090E093BEBE01E07C8F2C098C198C59833
:1004B600C498E8ECF0E00E94B10D09911991FF9003
:1004C60008955CD1919A90980E94CF0D0E94130EC8
:1004D600E6E5F0E00E94190E0E941D0EECE6F0E043
:1004E6000E94190EE8E8F3E10E94B10D0E94F30B99
:1004F600C39AC598C49AC098C19A0E94230E0E94B6
:10050600260EECE7F0E00E94190E0E94290EE7E89D
:10051600F0E00E94190EFFCF0E94BD0D01DFEFE053
:10052600F0E0EA15FB053CF40E94F50D19F00E9477
:10053600FF0D09F401C00DC08BDFC3DF0E94B50DAE
:10054600EFE0F0E0EA15FB0524F00E94A70D0E94FB
:10055600B50DE2CFE5DE0E94F50D81F00E94FF0D9C
:1005660069F09E990BC0E6E0F0E0EC15FD0534F469
:10057600A0916001B091610117971CF40E942E0EA4
:100586000CF070C00E94F50D19F40E942E0E0CF0AE
:100596000DC00E94E70D0E94A10D0E94330E0E941D
:1005A600360E0E94390E9E9BFECF5CC00E94FF0D48
:1005B60019F40E942E0E0CF00EC00E94E70D0E9448
:1005C600A10DDCD00E94AC0D0E94360E0E94390EA1
:1005D6009E9BFECF47C0E6E0F0E0EC15FD059CF0E3
:1005E6000E94E70D0E94A10DC9D00E94C50D0E9470
:1005F600BD0D0E943C0EC2D00E94B50D0E94390E60
:100606009E9BFECF2FC00E943F0E17979CF40E9420
:10061600E70D0E94A10DB2D00E94B50D0E94390EC1
:100626000E943C0EABD00E94C50D0E94BD0D9E9B44
:10063600FECF18C09E9B16C0A1D09198909A0E949A
:100646003C0E91989098C79AC6989D99FECFC798E8
:10065600C698909A9198C69AC7989C99FECFC798C3
:10066600C6985ADF08950E94BD0D5ADEE8E0F0E014
:10067600AE16BF0614F40C9488036CDF51DEE2E379
:10068600F0E00E94B10D23DEF6010E943F0EAE0F90
:10069600BF1FA134E0E0BE0774F4E0916201F0915F
:1006A6006301A0916401B0916501AE0FBF1FA13433
:1006B600E0E0BE070CF428C00E943F0EAC15BD0555
:1006C60084F40E94260EE2E9F0E00E94190E0E94D0
:1006D6009B0D0E94F30BC39A0E94A70D0E94B50DB5
:1006E6000FC00E94260EE2E9F0E00E94190E0E9459
:1006F6009B0D0E94F30BC39A0E94AC0D0E94440E00
:100706003DD00E94BD0D26DFB1CFA2DE0E94E70DCF
:100716000E94A10D0E94330E0E94B50D0E94330E59
:100726000E94B50D0E944C0E0E94BD0D0E94230E24
:1007360025D0F6DDF6010E943F0EAE0FBF1FAB358A
:10074600E0E0BE079CF00E943F0EAC15BD052CF400
:100756000E94A70D0E94B50D04C00E94AC0D0E9418
:10076600440E0CD00E94BD0D0E94C50D0E94BD0D09
:10077600E0EAFFE00E94B10D01D075CFC59B02C033
:10078600C59801C0C59AC49B02C0C49801C0C49A4A
:10079600C09B02C0C09801C0C09AC19B02C0C1984C
:1007A60001C0C19AE0E5F0E00E94B10DC598C49879
:1007B600C098C198E4E6F0E0FA93EA930E94AA0F83
:1007C6000895E9B3E03039F4F20131962F01E1E002
:1007D600F0E00E94B10DE9B3E03011F04424552455
:1007E600E8EBFBE04E165F0610F40C9446040E94FC
:1007F600BD0D96DDE8E0F0E0EA15FB0534F49A9BC2
:1008060002C0989901C001C001C002C089DDF2CFC3
:100816001FDE0E94E70D0E94CF0D0E94330E0E943C
:10082600B50D0E944C0E0E943C0ECADD0E94BD0D05
:100836000E94A10DA3DFC398EBE9F0E00E94190E18
:100846000E94290E0E94A10D0E94F30BC39A0E94DA
:10085600BD0D0E94A10D0E94330E0E94B50D0E948F
:100866004C0E0E943C0EACDD0E94A10D0E94BD0DF7
:100876000E94230E83DF0E94AC0D0E94C50DA0DDF1
:100886000E94A10DF0DE0895E9B3E03161F0E9B30D
:10089600E83049F0E9B3E83131F0E9B3E03319F073
:1008A600E9B3EC3009F4FAC0E9B3E130A9F0E9B3F1
:1008B600E33091F0E9B3E23079F0E9B3E63061F084
:1008C600E9B3E73049F0E9B3EE3031F0E9B3EC31A2
:1008D60019F0E9B3EF3019F40E94FA0DE3C0E9B359
:1008E600E43019F40E94FA0DDDC0E9B3E93081F174
:1008F600E9B3EB3069F1E9B3EA3051F1E9B3EE302F
:1009060039F1E9B3ED3021F1E9B3E13109F1E9B3A8
:10091600E331F1F0E9B3E231D9F0E9B3E631C1F000
:10092600E9B3E931A9F0E9B3EB3191F0E9B3EA3182
:1009360079F0E9B3EE3161F0E9B3E13349F0E9B3B7
:10094600E33331F0E9B3E23319F0E9B3E63381F486
:100956000E94500EC39A0E940E0EE9B3E030E9F7EA
:100966000E94500EC39A0E94FA0DC89BFECF9AC0F1
:10097600E9B3E13491F0E9B3E13679F0E9B3E13274
:1009860061F0E9B3E13349F0E9B3E23231F0E9B3BA
:10099600E23319F0E9B3E63409F480C0E9B3E0388C
:1009A600C1F0E9B3E03CA9F0E9B3E03491F0E9B372
:1009B600E03679F0E9B3E03361F0E9B3E03E49F0BF
:1009C600E9B3E03731F0E9B3E83319F0E9B3E03FD2
:1009D60019F4C098C19A64C0E9B3E03219F4C0981A
:1009E600C19A5EC0E9B3E03981F1E9B3E03D69F14E
:1009F600E9B3E03551F1E9B3E03739F1E9B3E03B6A
:100A060021F1E9B3E83809F1E9B3E83CF1F0E9B3DB
:100A1600E834D9F0E9B3E836C1F0E9B3E839A9F02A
:100A2600E9B3E83D91F0E9B3E83579F0E9B3E837A1
:100A360061F0E9B3EC3849F0E9B3EC3C31F0E9B3E5
:100A4600EC3419F0E9B3EC3681F40E94500EC39AE7
:100A56000E940E0EE9B3E030E9F70E94500EC39AE9
:100A66000E94040ECF9BFECF1DC0E9B3E23891F081
:100A7600E9B3E63879F0E9B3E43861F0E9B3EC3884
:100A860049F0E9B3E43431F0E9B3EC3419F0E9B3F1
:100A9600E23609F403C0E9B3E03021F0C09AC19808
:100AA600C59AC4988EDE08950E94F30B0E94560ED6
:100AB600E8EAF0E0FA93EA930E945C0E0E94610E67
:100AC6000E946A0E9A9909C00E945C0EEC59FF4F6B
:100AD6000E94700E0E94C20D29C09B9908C00E94F8
:100AE600C20D0E945C0E3A960E94700E1FC0989925
:100AF60009C00E945C0EE456F0400E94700E0E94EF
:100B0600C20D14C0999908C00E945C0E3A970E94C3
:100B1600700E0E94C20D0AC09E9B08C09E99FECF11
:100B26000E94360EC39A0E94B50D28DE0E945C0E06
:100B36003A9734F4A0E0B0E0EAE0F0E00E94181240
:100B4600B5CF0E94F30B0E94560EE6EBF0E0FA9347
:100B5600EA930E94750E0E94610E0E946A0E9A998F
:100B660009C00E94750EEC59FF4F0E947A0E0E9432
:100B7600C20D28C09B9908C00E94C20D0E94750E26
:100B86003A960E947A0E1EC0989909C00E94750E68
:100B9600E456F0400E947A0E0E94C20D13C0999945
:100BA60008C00E94750E3A970E947A0E0E94C20DE6
:100BB60009C09E9B07C09E99FECF0E94360EC39A1F
:100BC6000E94C50D0E94750E3A9734F4A2E0B0E07B
:100BD600EAE0F0E00E941812B6CF0E94130E0E94BF
:100BE6007F0EE4ECF0E0FA93EA93E0E0C899E1E0E6
:100BF6000E94840EE0E0C999E1E00E94840EE0E0E4
:100C0600CA99E1E00E94840EE0E0CB99E1E00E94FF
:100C1600840EE0E0CC99E1E00E94840EE0E0CD99FC
:100C2600E1E00E94840EE0E0CE99E1E00E94840EAD
:100C3600E0E0CF99E1E00E94840E80E20E946A0B18
:100C4600A4960E946A0E0E941D0E0E947F0EE6ED7B
:100C5600F0E0FA93EA93E0E09E99E1E00E94840EC8
:100C660084E00E946A0B28960E946A0EE4E6F0E091
:100C76000E94B10D9B9903C09B9BFECF01C0ADCFD7
:100C86000E94F30B0E94130EE1EEF0E00E94190E93
:100C96000E941D0E0E947F0EE1EFF0E0FA93EA93A8
:100CA600E0E09899E1E00E94840EE0E09999E1E0A5
:100CB6000E94840EE0E09A99E1E00E94840EE0E052
:100CC6009B99E1E00E94840EE0E09D99E1E00E949C
:100CD600840EE0E09C99E1E00E94840E88E10E9487
:100CE6006A0B6C960E946A0EE4E6F0E00E94B10D73
:100CF6009B9903C09B9BFECF01C0C4CF0E94F30B00
:100D0600C3980EDB0E94290E0E947F0EE3E0F1E0FD
:100D1600FA93EA93E0916001F09161010E948A0ED4
:100D2600F5010E948A0EF6010E948A0E8CE00E944E
:100D36006A0B60960E946A0E9B9903C09B9BFECF2E
:100D460001C0DECF0E94F30BE0E0EA933BDAAEE8A7
:100D5600B1E00E948F0EA0918E01B0918F0180911B
:100D66009001909191010E94960EE0938E01F0936E
:100D76008F016093900170939101E1E0EA9322DA8A
:100D8600A2E9B1E00E948F0EA0919201B091930169
:100D960080919401909195010E94960EE0939201A4
:100DA600F09393016093940170939501E2E0EA93C6
:100DB60009DAA6E9B1E00E948F0EA0919601B091E2
:100DC600970180919801909199010E94960EE09367
:100DD6009601F09397016093980170939901E3E06F
:100DE600EA93F0D9AAE9B1E00E948F0EA0919A0188
:100DF600B0919B0180919C0190919D010E94960E5D
:100E0600E0939A01F0939B0160939C0170939D017E
:100E1600E4E0EA93D7D9AEE9B1E00E948F0EA09143
:100E26009E01B0919F018091A0019091A1010E9425
:100E3600960EE0939E01F0939F016093A00170933C
:100E4600A101E5E0EA93BED9A2EAB1E00E948F0EC5
:100E5600A091A201B091A3018091A4019091A50156
:100E66000E94960EE093A201F093A3016093A40161
:100E76007093A501E6E0EA93A5D9A6EAB1E00E943F
:100E86008F0EA091A601B091A7018091A801909123
:100E9600A9010E94960EE093A601F093A701609324
:100EA600A8017093A901E7E0EA938CD9AAEAB1E018
:100EB6000E948F0EA091AA01B091AB018091AC0166
:100EC6009091AD010E94960EE093AA01F093AB01BA
:100ED6006093AC017093AD010E94560EE1E1F1E022
:100EE600FA93EA93E0918E01F0918F01609190015F
:100EF600709191010E94F611E0919201F091930197
:100F060060919401709195010E94F611E09196010D
:100F1600F091970160919801709199010E94F611E4
:100F2600E0919A01F0919B0160919C0170919D0165
:100F36000E94F611E0919E01F0919F016091A0013F
:100F46007091A1010E94F611E091A201F091A30116
:100F56006091A4017091A5010E94F611E091A6018D
:100F6600F091A7016091A8017091A9010E94F61164
:100F7600E091AA01F091AB016091AC017091AD01D5
:100F86000E94F61180E20E946A0BA4960E94290E26
:100F96000E946A0E9B9903C09B9BFECF01C0D4CED4
:100FA6000E94F30B0895E0E0EBBBEABBEFEFE8BB72
:100FB600E7BBE5BBE0E0E4BBE2BBE1BBEFBDE2E0E3
:100FC600EEBDE0E0EDBDECBDE7BDE6BDEBBDEABDC7
:100FD600E9BDE8BDE9BFE0E8E8B9E0E0E0BFE7B9B0
:100FE600E3E8E6B9C398E0E1EA930E94600CEFEF0C
:100FF600E8BBC39A0E94750EEF3FAFEFFA0731F4D4
:10100600A2E0B0E0E4E4F2E00E9418120E945C0E56
:10101600EF3FAFEFFA0731F4A0E0B0E0EAE3F2E029
:101026000E941812989903C0989BFECFD6DD9B9913
:1010360003C09B9BFECF38DD9A9903C09A9BFECFD7
:10104600CED8999903C0999BFECF7BDDE0E0E09373
:10105600AE01E093AF01A091AE01B091AF01A03413
:10106600EFE1BE0734F410DCAEEAB1E00E94A50E53
:10107600F2CF87D9EBCFFFCF1A930A93AA81BB8110
:1010860012960E94DD11309729F1AA81BB81149630
:101096000E94DD118F01309761F00230E0E01E07FB
:1010A600C0F0F80131978F01AA81BB811496ED93A8
:1010B600FC93AA81BB8112960E94A50E3197AC8142
:1010C600A083AA81BB810E94DD11FF2312F00E943A
:1010D600A50E06C0AA81BB81EFEFFFEFED93FC934F
:1010E60019810881259608952497E0E0E883E9832D
:1010F600E0E8EA83EFE3EB830E943712EE85FF8593
:10110600EF3FAFEFFA0749F4E885F985FA93EA93DA
:10111600E2E4F1E00E94AB0EB8C0EF3FAFE7FA079A
:1011260049F4E885F985FA93EA93E3E4F1E00E944D
:10113600AB0EABC0AB85A73010F0E6E0EB871B85A6
:10114600E12F1150E03019F00E94AF0EF9CFEC8577
:10115600FD856E857F850E94311221F430E00E9464
:10116600AF0E2EC03B850E94BE0E09F010F40C9403
:10117600C7080E94AF0E0E94BE0E28F00E94C90E3C
:101186000E94CE0EF8CF0DC00E94BE0E40F40E9403
:10119600C90E0E94DA0E0E94E10E3150F5CF0E9470
:1011A600AF0EEC85FD856E857F850E94E60E0E945A
:1011B600E10E0E94BE0E20F00E94C90E0E94CE0EC5
:1011C60010E0EB85E117A8F1AC81BD818E819F818E
:1011D6000E94ED0E0E94E60E0E94F6110E94E40C9B
:1011E600EC83FD836E837F830E94C90E0E94FA10F2
:1011F6000E94E90F0E2F0E94F40E0E94FB0EFF279D
:10120600662777270E942210AC81BD818E819F813F
:101216000E94AC100E94C90E0E94000F0E94E10EAF
:10122600E12F1F5FE03069F60E94F40EEEE2EC93C8
:10123600C8CF0E94050F3197AA85A08330302CF4C1
:101246003195A885B985EDE203C0A885B985EBE29D
:10125600EC930E94050F0E94050F3197BF01A32F43
:10126600EAE00E948411E05DDB01EC930E94050F29
:101276003197BF01A32FEAE00E94C111E05DDB01B7
:10128600EC93A885B985E0E0EC930E943E12609647
:101296000895EF9761970E94351210E0FE01E85A13
:1012A600FF4F0190F081E02DE887F987FE01EA5AA9
:1012B600FF4F0190F081E02DEE83FF83AE81BF8169
:1012C600E0E0F0E0ED93FC93DE01A45ABF4F0E94EC
:1012D600A50E3197E4912E2FE03011F40C94610B9A
:1012E600E12FE03039F4253211F411E002C00E94FA
:1012F6000B0FE3C1E130C1F4253219F40E940B0F44
:10130600DBC112E0E0E0ED8B00E02D3211F401E0EC
:10131600D4C12B3219F4EBE2ED8BCFC1203219F494
:10132600E0E2ED8BCAC102C0E23039F450E013E0CE
:10133600203311F40068C1C102C0E33091F42033B8
:1013460010F02A3308F007C0AAE05A9F502DE22F6A
:10135600E0535E0FB2C140E02E3211F414E0ADC18D
:101366000FC0E43099F4203310F02A3308F008C097
:101376000062AAE04A9F402DE22FE0534E0F9DC126
:101386002C3619F4026015E098C104C0E53011F05E
:101396000C94600BE22FE33659F40E94140F0E945E
:1013A6001B0F0E94140FA481AA930E94220F84C1CE
:1013B600E53411F0E53609F404C0E63611F00C9474
:1013C6002E0AFE017696EE87FF870E942A0F0E945C
:1013D600E1110E94310F0E94360FAD85AA2322F03B
:1013E600AD89AB3249F017C00E94380F0E94B60F84
:1013F6000E94310FEDE2ED8B07FF05C0ED89EA9300
:101406000E94220F08C0EE85FF853196EE87FF8782
:101416003197AD89A08305FF46E0263661F40E9428
:10142600380F0E94F6114A93EB89FC89FA93EA93E6
:101436000E94FB0C0BC00E94380F0E94F6114A93C3
:101446002A93EC89FD89FA93EA934EDEFE0176969D
:101456000E943D0F1EC0E33739F40E94360F0E94EA
:10146600450F0E943D0F0EC0E037C1F40E94360FB3
:101476000E94450FEE87FF87FA93EA930E94AA0C13
:101486001E2F08600F77403011F0411708F001C099
:10149600142F40E0E0E0EC8B30E06EC0E43611F053
:1014A600E93611F4046002C0E537A1F4EAE0EC8BFA
:1014B60001FF08C0E0E0FAEC6AE97BE30E944A0F0C
:1014C6001AE023C0E0E1F7E260E070E00E944A0F14
:1014D60015E01BC0E83511F4086004C0E83711F0C8
:1014E6000C945F0BE0E1EC8B01FF08C0E0E0F0E05C
:1014F60060E070E10E944A0F18E007C0E0E0F0E10A
:1015060060E070E00E944A0F14E0403011F00F775F
:1015160001C041E001FF08C00E94360F0E942A0F59
:1015260014960E94E1110FC002FF07C00E94360FF9
:101536000E94450F0E94711106C00E94360F0E943C
:10154600450F66277727EA87FB876C877D8702FF2B
:1015560012C0AD85AA2342F40E94380F0E9463117F
:101566000E94310FEDE2ED8BED89E03019F01F5F3F
:101576004F5F01C00B7F342F00FD14C0151710F408
:10158600351708F00FC007FF08C002FF04C00B7F25
:101596002D89115001C020E301C020E20E940B0FEB
:1015A6005150ECCF141790F4006102FF06C00E9460
:1015B6004F0F09F0515011504150E0E3EA930E9459
:1015C600220F503009F051504150ECCF312FEC89A9
:1015D600E030B9F43030A1F003FF06C0EE85FF8598
:1015E6002591EE87FF8705C0AE85BF852D91AE8715
:1015F600BF870E940B0F503009F051503150EACF8F
:1016060051C00E94630F0E949C112E2F2A3030F089
:1016160003FF02C0295C01C0295A01C0205D04FDF8
:1016260021C0213360F4A889B9898A899B89A130B0
:10163600E0E0BE07E0E08E07E0E09E0709F40BC09D
:10164600431740F4531710F000FF01C010C020E20A
:1016560007FF08C020E3006102FF04C00E944F0F8D
:1016660009F051500E940B0F503009F05150315083
:101676000E94630F0E94CD110E94310FEC89A88948
:10168600B9898A899B89FF27662777270E949C113B
:101696000E944A0FE889F9896A897B890E9431127A
:1016A60009F0AFCF00FF08C0503031F05150E0E2F2
:1016B600EA930E94220FF8CF10E006CEAE81BF81DA
:1016C6000E94DD110E943C12EF966F960895FF92DC
:1016D600F82E26970E9437120E946C0F309719F445
:1016E600EFEFFFEF25C0DE0116960E945F118D0118
:1016F6000E946C0FEE83FF83E0E0E887E987DE0156
:101706001A960E945F110E94DD11FA93EA931A93CA
:101716000A93EFE3F8E0FA93EA93FE013A96FA9316
:10172600EA93B7DD9F01AE81BF81E0E0EC93F9015A
:101736000E943E122A96FF900895FFE0FA95F1F76F
:101746000895A7B3AF70A7BBC19AC098F6DFC29A37
:10175600F4DFA6B3C298F1DFC29AEFDFC298A7FD05
:10176600F5CF0895A07FAB2BA8BBC29A0E94A00B11
:10177600C2980E94A00B0895C198A7B3A76FA7BBF4
:10178600B8B3BF70A881EEDFA881A295EBDFC19A3E
:101796000C94930CC29A0E94A00BE6B3C2980E94C6
:1017A600A00BE07F08950E94A00BF4DFAE2FF2DFBE
:1017B600C198E295EA2B08950E94A40BE881F0E017
:1017C600E055FE4FE081A981EA0FEA930E94BF0B24
:1017D600E981E093B401E881E093B501229608958A
:1017E6000E94A40BE2E0EA930E94BF0B0E94A40BA6
:1017F600ECE0EA930E94BF0B0E94A40BE1E0EA939F
:101806000E94BF0BE0E0E093B501E093B4010895B8
:10181600EF93FF93A8816894AA3039F0E894E09199
:10182600B601A091B401AE1760F0E091B501EF5F8B
:10183600E093B501E0E0EA93E091B501EA93BCDFFD
:1018460056F0E091B401EF5FE093B4017ADFC09AFD
:10185600A881AA9391DFFF91EF910C94930C1A93B0
:10186600A981BA81ED91A983BA831E2FE03019F0C0
:101876001A93CEDFF5CF0EC01A93E981FA8131961D
:10188600E983FA833197E4911E2FE03019F01A9319
:10189600BFDFF3CF188123960895AA27BB27119798
:1018A600F1F70895C198A7B3A76FA7BBB8B3BF70E8
:1018B600A8810E94B50BC19A33C0C298C098E8812E
:1018C600E093B601E058E093B201E881E054E0937A
:1018D600B3010E94730F0E94730F0E94730FDDDF26
:1018E600E0E2EA93DFDFD9DFE8E20E94790FE4E085
:1018F6000E94790FE5E80E94790FA7B3AF70A7BBE6
:10190600C19A0E94D60BE53011F0E0E009C00E94B2
:10191600A40BE6E0EA930E94BF0B0E94F30BE1E002
:1019260021960895E991F991A991B991CD01059072
:101936000D920020E1F7FC010895A991B991EE27D7
:10194600FF276D91662311F03196FBCF0895AA27E4
:10195600BB27E991F9910590002011F01196FBCF74
:10196600FD0108957B816A81F981E88177FB770F14
:1019760067FD7160972F9E5781F078F0983190F44B
:10198600AA27BB27882708948795B795A7959A9580
:10199600D1F7EA23FB23682305C0E8947727EE27CF
:1019A600FF2766276F77769508F4606877F9A9911F
:1019B600B99189919991EA17FB076807790797FB0F
:1019C60008950E947E0F0E94F6110E94B50C0E9497
:1019D600F11119F40E947E0F09C0E6F70E947E0FEE
:1019E600A0E0B0E080E89FE30E9455102496089599
:1019F6002497E0E0E883E983EA83EFE3EB831A9335
:101A06000A93EB85FC85EF3FAFEFFA0729F476D210
:101A1600ECE4F1E09DD188C0EF3FAFE7FA0729F487
:101A26006DD2EDE4F1E094D17FC0AC85AA2352F4E7
:101A3600E985FA856B857C850E94B60F64D268D2EB
:101A4600EDE2EC93A885A73010F0E6E0E88718856C
:101A5600E12F1150E03021F062D2BCD165D2F8CF2F
:101A660068D20E945C104FD210E0E0E0F0E060E83F
:101A76007FE35AD25ED20E943F1160F050D297D1D6
:101A860053D21F5F173228F039D2E1E5F1E060D179
:101A96004BC0F0CF103021F43BD2E0E3EC9320C0F2
:101AA600E12F1150E030E1F03AD294D18CD10E946E
:101AB600F6110E94E40C38D23CD20E94FA100E9421
:101AC600E90F0E2F25D294D1F0E029D20E94711190
:101AD6000E9422100E94AC1035D28FD114D2E0CFD2
:101AE600E885E030E9F014D2EEE2EC93E885E150C7
:101AF600E887EF5FA9F026D25AD105D2E985FA85A3
:101B06006B857C850E94E90F0E2F02D271D1F0E021
:101B160019D20E9471110E9422106FD1F4D1E6CF22
:101B2600AE81BF81E0E0EC93198108812D9608957E
:101B3600E0EDF7E0FA93EA930C94AA0FE8EEF3E0EF
:101B4600FA93EA930C94AA0FC59AC498C098C19ABE
:101B56000895C598C49AC09AC1980895FA93EA93CD
:101B66000C94AA0FA0E0B0E00E940812FA93EA9340
:101B76000C940501C59AC498C09AC1980895EAEFD5
:101B8600F0E0ECCFA2E0B0E00E940812FA93EA93EC
:101B96000E9409010C94C103ECEBF2E0DFCFE0E018
:101BA600F0E0FDBDECBD0895ECB5FDB5DF01EAE35F
:101BB600F0E00E94891108958C9A949A85E38A959B
:101BC600F1F794988C9808950E94C103C598C49A19
:101BD600C098C19A0895E0916001F0916101EC15F9
:101BE600FD050895A0E09A99A1E0A0300895C09A55
:101BF600C198C598C49A0895A0E09899A1E0A0302C
:101C06000895C098C19AC59AC49808950F5F1F4F4A
:101C1600E1E0F0E0A3CFC09AC198C59AC4980895B0
:101C2600C398E0E0EA93EA930C94DF0BFA93EA9305
:101C36000C943F0CE0E0EA93E1E0EA930C94DF0BAE
:101C4600E8EBFBE08BCF0E94C103EACFE0E0EA932A
:101C5600EA930C94DF0BE7E0F0E0EA15FB05089544
:101C66000E94C10371CFECE2F1E078CF0E94C1037C
:101C760081CFE4EFF1E072CFA0916001B0916101F4
:101C86000895A2E0B0E00E940812FA93EA930C9439
:101C960009010E94C1030C94E3010E94C103C39889
:101CA600EAE0F0E05BCFC398E6E6F1E0FA93EA9368
:101CB6000895A0E0B0E00E94081208950E947111F4
:101CC6000E94F61184E00E946A0B2896BFCFE6E6D2
:101CD600F1E0FA93EA930C94320CA0E0B0E00E9493
:101CE60018120895A2E0B0E00E9408120895A2E03A
:101CF600B0E00E9418120895E6E6F1E0FA93EA933E
:101D06000895FF27662777270E94F61108950E94F7
:101D160071110E94F6110895662777270E942210F6
:101D26000E94E7110895E0E0F0E060EA70E40E94A6
:101D3600AC10DF01CB01E0E0F0EC6FE774E40E9449
:101D4600FA100895ED91FD913196FE93EE93089564
:101D5600FA93EA930C94950CAC81BD818E819F8198
:101D6600E0E0F0E060E271E40E94AC10EC83FD83F9
:101D76006E837F830895EC81FD816E817F81AC85C2
:101D8600BD858E859F850E943F110895AC85BD85D2
:101D96008E859F850895EDECFCEC6CEC7DE30E944E
:101DA600AC10EC87FD876E877F873F5F0895E0E084
:101DB600F0E060E271E40E94AC100895EC87FD87C4
:101DC6006E877F870895A0E0B0E080E09FE30E94E1
:101DD6005C100895EDECFCEC6CEC7DE30E94AC101D
:101DE6000895A885B9851196A887B987119708958A
:101DF600E02FE05DEC93E02F08950E94FB110E9416
:101E060055100895E885F9853196E887F98708958C
:101E16002A93EF81F885FA93EA93EB85FC85099579
:101E26000895FE01E65AFF4F0190F081E02D0895D6
:101E36003497DE01A65ABF4FED93FC930895EF81C8
:101E4600F885FA93EA93EB85FC8509950895DE01FA
:101E5600A65ABF4F0D90BC91A02D0895EA87FB8727
:101E66006C877D870895DDDFE3CFEA85FB856C858A
:101E76007D850895EE87FF87FA93EA930E94A00C6A
:101E86001E2F0895E4DF14960E94DD110895E88B55
:101E9600F98B6A8B7B8B08950B7FED89EA93FE01A4
:101EA600E95AFF4F0190F081E02DFA93EA93FE0183
:101EB600E55AFF4F0190F081E02D099550300895C5
:101EC600E889F9896A897B89AA85BB858C859D8580
:101ED6000895DE011C960E945F110E94DD1108958F
:101EE6000E94500CE0E3EA930C94550CEA930E948E
:101EF600BF0B0C94500C0E94EC110895EE81FF81EB
:101F0600FA93EA930895E987FA876B877C870895A1
:101F1600AE81BF811196AE83BF8311970895AA81C2
:101F2600BB818C819D810895EA83FB836C837D83CD
:101F36000895EA81FB816C817D81A985BA858B85AF
:101F46009C850895A985BA858B859C850895E99118
:101F5600F991309639F080ED97E00197F1F7A89561
:101F66003197C9F7089530976040704009F070586E
:101F76000895552342F4503811F4E0FF04C0319619
:101F8600691F791F6BF050E8572711F45F93CFC094
:101F96005F3F31F0660F000C57956795752F0895D2
:101FA6005F9300200AF0CFC0C8C050E8192E152252
:101FB600880F991F9527550F879550E8072E0522FC
:101FC600660F771F7527550F67950895689401C0AA
:101FD600E8945F93F2DF703818F07F3F08F4A7C0EB
:101FE60056E1571BAAF4519558300EF4593030F08B
:101FF600EFEFFFEF6FEF7FE777F91AC077275523EB
:10200600B9F0EE0FFF1F661F771F5A95D1F710C064
:102016007727583028F0EF2FF62F672F5850F9CF33
:10202600552331F076956795F795E7955A95D1F74B
:1020360000200AF445D15F910895689401C0E894A0
:10204600309760407040B1F0002426F0772312F4F8
:10205600009436D1172E7EE1112032F07A95EE0FDC
:10206600FF1F661F111CF9CFEF2FF62F612D5F930F
:102076008ADF5F9108954F93AF01FD01DA01AB014D
:10208600BC01CA01402D012C142E4F910895EA0F70
:10209600FB1F681F0895E095F0956095EF5FFF4F71
:1020A6006F4F08955F9381DF903871F150E81526E0
:1020B60004C05F937ADF903839F1703821F1572FD9
:1020C600591B2BF112F4D7DFFACF583118F0AA2793
:1020D600BB278827583028F0AB2FB82F88275850B1
:1020E600F9CF552329F08695B795A7955A95D9F72F
:1020F600502D512572F0CBDF38F46795F795E795AB
:10210600739513F420C0B7DF3EDF5F910895D8F7CB
:10211600FBCFEA1BFB0B680B51F010F40094BBDFFE
:10212600662392F3EE0FFF1F661F7A95CBF7EE2715
:10213600FF27662777275F910895EFEFFFEF6FE799
:102146007FEF5F910895EFEFFFEF6FE77FE75F9116
:1021560008955F932ADF703851F3903841F30124D4
:102166000894791F23F41CF300203AF3ECCF0F9266
:102176001F932F933F934F93112722279927689FE9
:10218600A0018F9F302D410D591F6B9F300D411DB2
:10219600591F8E9F27D0BF9F25D06A9F23D0BE9FF1
:1021A6001DD0AF9F1BD0AE9F110D291F391F491F90
:1021B600591FE32FF42F652F522F4F913F912F91E7
:1021C6001F910F9066232AF0550FEE1FFF1F661F03
:1021D60002C073954BF2CDDE5F910895100D211D5F
:1021E600391F02C0200D311D491F591F08955F93E5
:1021F600DCDE703821F411200AF49FCFA4CF90388A
:1022060009F495CF01240894970B1BF4D4F300200E
:10221600F3CF792F1F932F933F934F9311241127B9
:10222600222733274427552790E2AE17BF07860794
:10223600410730F0AE1BBF0B860B410B089401C063
:102246008894551F221F331F111CAA1FBB1F881FEE
:10225600441F9A9551F7F901612D4F913F912F91A6
:102266001F91662332F0550FEE1FFF1F661F7A95EA
:1022760043F27FDE5F91089599239AF0772342F027
:10228600971748F029F4AE17BF07860720F031F0FC
:102296009894889408959894089408951894889426
:1022A60008957723C2F7971798F3A9F7EA17FB075C
:1022B600680788F399F3ECCF0024AF0DB01D08959D
:1022C600F09560957095E195FF4F6F4F7F4F08959C
:1022D600FE2FFF0FFF0B6F2F7F2F08956F2F660FB7
:1022E600660B762F0895002498E0AA0F001C0E1A9C
:1022F60010F40E0E01C0A1609A95B9F7EA2FA02D31
:1023060008954CD0F0DF0EF4E195089500241124D1
:1023160090E1AA0FBB1F001C111C0E1A1F0A18F40D
:102326000E0E1F1E01C0A1609A9599F7FD01D001FE
:1023360008953F934F935F93002411244427552714
:1023460030E2AA0FBB1F881F991F001C111C441FD7
:10235600551F0E1A1F0A460B570B28F40E0E1F1E8A
:10236600461F571F01C0A1603A9559F7FD01BC01F0
:10237600D001CA015F914F913F910895E894A7FF5C
:1023860002C0A1956894E7FDE195ADDFEA2F0EF452
:10239600E1950895CEDFFD01BC010895E894E7FFBD
:1023A60002C0E1956894A7FF04C0A19500F80394C4
:1023B60000FA0895ED91FC9111970895ED91FD9124
:1023C6006D917C9113970895ED93FD936D937C9396
:1023D6000895E881F9816A817B810895E883F9830C
:1023E6006A837B8308957A936A93FA93EA930895AE
:1023F600182E862F612D192E972F712D1B2EBF2F6C
:10240600F12D1A2EAE2FE12D0895119602D0FE2F32
:102416001197E199FECFFF93FFB7F894AEBBBFBB10
:10242600E09AEDB3FFBFFF91089507D01196EF93A1
:10243600EF2F03D0EF9111970895E19B02C0A89565
:10244600FCCF9FB7F894AEBBBFBBE09A8DB3E8173D
:1024560019F0EDBBE29AE19A9FBF0895309760406C
:10246600704008955A934A933A932A931A930A937B
:1024760008955D814C813B812A81198108810895E7
:00000001FF
